{
  "contractName": "Adoption",
  "abi": [
    {
      "constant": true,
      "inputs": [
        {
          "name": "",
          "type": "uint256"
        }
      ],
      "name": "adopters",
      "outputs": [
        {
          "name": "",
          "type": "address"
        }
      ],
      "payable": false,
      "stateMutability": "view",
      "type": "function"
    },
    {
      "constant": false,
      "inputs": [
        {
          "name": "petId",
          "type": "uint256"
        }
      ],
      "name": "adopt",
      "outputs": [
        {
          "name": "",
          "type": "uint256"
        }
      ],
      "payable": false,
      "stateMutability": "nonpayable",
      "type": "function"
    },
    {
      "constant": false,
      "inputs": [
        {
          "name": "petId",
          "type": "uint256"
        }
      ],
      "name": "release",
      "outputs": [
        {
          "name": "",
          "type": "uint256"
        }
      ],
      "payable": false,
      "stateMutability": "nonpayable",
      "type": "function"
    },
    {
      "constant": true,
      "inputs": [],
      "name": "getAdopters",
      "outputs": [
        {
          "name": "",
          "type": "address[16]"
        }
      ],
      "payable": false,
      "stateMutability": "view",
      "type": "function"
    }
  ],
  "bytecode": "0x608060405234801561001057600080fd5b506103fe806100206000396000f300608060405260043610610062576000357c0100000000000000000000000000000000000000000000000000000000900463ffffffff16806337bdc99b146100675780633de4eb17146100a857806343ae80d3146100fb5780638588b2c514610168575b600080fd5b34801561007357600080fd5b50610092600480360381019080803590602001909291905050506101a9565b6040518082815260200191505060405180910390f35b3480156100b457600080fd5b506100bd610283565b6040518082601060200280838360005b838110156100e85780820151818401526020810190506100cd565b5050505090500191505060405180910390f35b34801561010757600080fd5b5061012660048036038101908080359060200190929190505050610304565b604051808273ffffffffffffffffffffffffffffffffffffffff1673ffffffffffffffffffffffffffffffffffffffff16815260200191505060405180910390f35b34801561017457600080fd5b5061019360048036038101908080359060200190929190505050610339565b6040518082815260200191505060405180910390f35b60008082101580156101bc5750600f8211155b15156101c757600080fd5b3373ffffffffffffffffffffffffffffffffffffffff166000836010811015156101ed57fe5b0160009054906101000a900473ffffffffffffffffffffffffffffffffffffffff1673ffffffffffffffffffffffffffffffffffffffff16141561027b576000808360108110151561023b57fe5b0160006101000a81548173ffffffffffffffffffffffffffffffffffffffff021916908373ffffffffffffffffffffffffffffffffffffffff1602179055505b819050919050565b61028b6103ae565b60006010806020026040519081016040528092919082601080156102fa576020028201915b8160009054906101000a900473ffffffffffffffffffffffffffffffffffffffff1673ffffffffffffffffffffffffffffffffffffffff16815260200190600101908083116102b0575b5050505050905090565b60008160108110151561031357fe5b016000915054906101000a900473ffffffffffffffffffffffffffffffffffffffff1681565b600080821015801561034c5750600f8211155b151561035757600080fd5b3360008360108110151561036757fe5b0160006101000a81548173ffffffffffffffffffffffffffffffffffffffff021916908373ffffffffffffffffffffffffffffffffffffffff160217905550819050919050565b610200604051908101604052806010906020820280388339808201915050905050905600a165627a7a72305820d1000bb264fcbf9caa49236a50b1932a2307450f8f09b25b75e259c678dfb65a0029",
  "source": "pragma solidity ^0.4.17;\n\ncontract Adoption {\n\n\taddress[16] public adopters;\n\n\t// Adopting a pet\n\tfunction adopt(uint petId) public returns (uint) {\n\t  require(petId >= 0 && petId <= 15);\n\n\t  adopters[petId] = msg.sender;\n\n\t  return petId;\n\t}\n\n\t// Releasing a pet\n\tfunction release(uint petId) public returns (uint) {\n\t  require(petId >= 0 && petId <= 15);\n\n\t  if (adopters[petId] == msg.sender) {\n\t  \tadopters[petId] = address(0);\n\t  }\n\n\t  return petId;\n\t}\n\n\t// Retrieving the adopters\n\tfunction getAdopters() public view returns (address[16]) {\n\t  return adopters;\n\t}\n}",
  "sourcePath": "/Users/mayankraikwar/Hackathon/Test/pet-shop-ethereum-development/contracts/Adoption.sol",
  "compiler": {
    "name": "solc",
    "version": "0.4.23+commit.124ca40d.Emscripten.clang"
  },
  "schemaVersion": "2.0.0",
  "updatedAt": "2018-05-09T06:44:52.754Z"
}